{
  "_format": "hh3-artifact-1",
  "contractName": "AgentExecutor",
  "sourceName": "contracts/AgentExecutor.sol",
  "abi": [
    {
      "inputs": [
        {
          "internalType": "address",
          "name": "_vault",
          "type": "address"
        }
      ],
      "stateMutability": "nonpayable",
      "type": "constructor"
    },
    {
      "inputs": [
        {
          "internalType": "address",
          "name": "owner",
          "type": "address"
        }
      ],
      "name": "OwnableInvalidOwner",
      "type": "error"
    },
    {
      "inputs": [
        {
          "internalType": "address",
          "name": "account",
          "type": "address"
        }
      ],
      "name": "OwnableUnauthorizedAccount",
      "type": "error"
    },
    {
      "anonymous": false,
      "inputs": [
        {
          "indexed": true,
          "internalType": "address",
          "name": "agent",
          "type": "address"
        }
      ],
      "name": "AgentAuthorized",
      "type": "event"
    },
    {
      "anonymous": false,
      "inputs": [
        {
          "indexed": true,
          "internalType": "address",
          "name": "agent",
          "type": "address"
        }
      ],
      "name": "AgentRevoked",
      "type": "event"
    },
    {
      "anonymous": false,
      "inputs": [
        {
          "indexed": true,
          "internalType": "address",
          "name": "previousOwner",
          "type": "address"
        },
        {
          "indexed": true,
          "internalType": "address",
          "name": "newOwner",
          "type": "address"
        }
      ],
      "name": "OwnershipTransferred",
      "type": "event"
    },
    {
      "anonymous": false,
      "inputs": [
        {
          "indexed": true,
          "internalType": "uint256",
          "name": "proposalId",
          "type": "uint256"
        },
        {
          "indexed": true,
          "internalType": "address",
          "name": "user",
          "type": "address"
        },
        {
          "indexed": false,
          "internalType": "uint256",
          "name": "rangeLower",
          "type": "uint256"
        },
        {
          "indexed": false,
          "internalType": "uint256",
          "name": "rangeUpper",
          "type": "uint256"
        },
        {
          "indexed": false,
          "internalType": "string",
          "name": "reasoning",
          "type": "string"
        },
        {
          "indexed": false,
          "internalType": "address",
          "name": "proposer",
          "type": "address"
        }
      ],
      "name": "ProposalCreated",
      "type": "event"
    },
    {
      "anonymous": false,
      "inputs": [
        {
          "indexed": true,
          "internalType": "uint256",
          "name": "proposalId",
          "type": "uint256"
        },
        {
          "indexed": true,
          "internalType": "address",
          "name": "executor",
          "type": "address"
        }
      ],
      "name": "ProposalExecuted",
      "type": "event"
    },
    {
      "inputs": [
        {
          "internalType": "address",
          "name": "agent",
          "type": "address"
        }
      ],
      "name": "authorizeAgent",
      "outputs": [],
      "stateMutability": "nonpayable",
      "type": "function"
    },
    {
      "inputs": [
        {
          "internalType": "address",
          "name": "",
          "type": "address"
        }
      ],
      "name": "authorizedAgents",
      "outputs": [
        {
          "internalType": "bool",
          "name": "",
          "type": "bool"
        }
      ],
      "stateMutability": "view",
      "type": "function"
    },
    {
      "inputs": [
        {
          "internalType": "uint256",
          "name": "proposalId",
          "type": "uint256"
        }
      ],
      "name": "executeProposal",
      "outputs": [],
      "stateMutability": "nonpayable",
      "type": "function"
    },
    {
      "inputs": [
        {
          "internalType": "uint256",
          "name": "proposalId",
          "type": "uint256"
        }
      ],
      "name": "getProposal",
      "outputs": [
        {
          "components": [
            {
              "internalType": "address",
              "name": "user",
              "type": "address"
            },
            {
              "internalType": "uint256",
              "name": "rangeLower",
              "type": "uint256"
            },
            {
              "internalType": "uint256",
              "name": "rangeUpper",
              "type": "uint256"
            },
            {
              "internalType": "string",
              "name": "reasoning",
              "type": "string"
            },
            {
              "internalType": "uint256",
              "name": "timestamp",
              "type": "uint256"
            },
            {
              "internalType": "bool",
              "name": "executed",
              "type": "bool"
            },
            {
              "internalType": "address",
              "name": "proposer",
              "type": "address"
            }
          ],
          "internalType": "struct AgentExecutor.StrategyProposal",
          "name": "proposal",
          "type": "tuple"
        }
      ],
      "stateMutability": "view",
      "type": "function"
    },
    {
      "inputs": [],
      "name": "getProposalCount",
      "outputs": [
        {
          "internalType": "uint256",
          "name": "count",
          "type": "uint256"
        }
      ],
      "stateMutability": "view",
      "type": "function"
    },
    {
      "inputs": [
        {
          "internalType": "address",
          "name": "user",
          "type": "address"
        }
      ],
      "name": "getUserPendingProposals",
      "outputs": [
        {
          "internalType": "uint256[]",
          "name": "pendingProposalIds",
          "type": "uint256[]"
        }
      ],
      "stateMutability": "view",
      "type": "function"
    },
    {
      "inputs": [
        {
          "internalType": "address",
          "name": "user",
          "type": "address"
        }
      ],
      "name": "getUserProposals",
      "outputs": [
        {
          "internalType": "uint256[]",
          "name": "userProposalIds",
          "type": "uint256[]"
        }
      ],
      "stateMutability": "view",
      "type": "function"
    },
    {
      "inputs": [],
      "name": "owner",
      "outputs": [
        {
          "internalType": "address",
          "name": "",
          "type": "address"
        }
      ],
      "stateMutability": "view",
      "type": "function"
    },
    {
      "inputs": [
        {
          "internalType": "uint256",
          "name": "",
          "type": "uint256"
        }
      ],
      "name": "proposals",
      "outputs": [
        {
          "internalType": "address",
          "name": "user",
          "type": "address"
        },
        {
          "internalType": "uint256",
          "name": "rangeLower",
          "type": "uint256"
        },
        {
          "internalType": "uint256",
          "name": "rangeUpper",
          "type": "uint256"
        },
        {
          "internalType": "string",
          "name": "reasoning",
          "type": "string"
        },
        {
          "internalType": "uint256",
          "name": "timestamp",
          "type": "uint256"
        },
        {
          "internalType": "bool",
          "name": "executed",
          "type": "bool"
        },
        {
          "internalType": "address",
          "name": "proposer",
          "type": "address"
        }
      ],
      "stateMutability": "view",
      "type": "function"
    },
    {
      "inputs": [
        {
          "internalType": "address",
          "name": "user",
          "type": "address"
        },
        {
          "internalType": "uint256",
          "name": "rangeLower",
          "type": "uint256"
        },
        {
          "internalType": "uint256",
          "name": "rangeUpper",
          "type": "uint256"
        },
        {
          "internalType": "string",
          "name": "reasoning",
          "type": "string"
        }
      ],
      "name": "proposeStrategy",
      "outputs": [
        {
          "internalType": "uint256",
          "name": "proposalId",
          "type": "uint256"
        }
      ],
      "stateMutability": "nonpayable",
      "type": "function"
    },
    {
      "inputs": [],
      "name": "renounceOwnership",
      "outputs": [],
      "stateMutability": "nonpayable",
      "type": "function"
    },
    {
      "inputs": [
        {
          "internalType": "address",
          "name": "agent",
          "type": "address"
        }
      ],
      "name": "revokeAgent",
      "outputs": [],
      "stateMutability": "nonpayable",
      "type": "function"
    },
    {
      "inputs": [
        {
          "internalType": "address",
          "name": "newOwner",
          "type": "address"
        }
      ],
      "name": "transferOwnership",
      "outputs": [],
      "stateMutability": "nonpayable",
      "type": "function"
    },
    {
      "inputs": [],
      "name": "vault",
      "outputs": [
        {
          "internalType": "contract LiquidityVault",
          "name": "",
          "type": "address"
        }
      ],
      "stateMutability": "view",
      "type": "function"
    }
  ],
  "bytecode": "0x608060405234801561000f575f5ffd5b5060405161148e38038061148e83398101604081905261002e91610128565b338061005457604051631e4fbdf760e01b81525f60048201526024015b60405180910390fd5b61005d816100d9565b506001600160a01b0381166100b45760405162461bcd60e51b815260206004820152601560248201527f496e76616c6964207661756c7420616464726573730000000000000000000000604482015260640161004b565b600180546001600160a01b0319166001600160a01b0392909216919091179055610155565b5f80546001600160a01b038381166001600160a01b0319831681178455604051919092169283917f8be0079c531659141344cd1fd0a4f28419497f9722a3daafe3b4186f6b6457e09190a35050565b5f60208284031215610138575f5ffd5b81516001600160a01b038116811461014e575f5ffd5b9392505050565b61132c806101625f395ff3fe608060405234801561000f575f5ffd5b50600436106100e5575f3560e01c80637da6ac0d11610088578063c7f758a811610063578063c7f758a8146101db578063efd76065146101fb578063f2fde38b1461022d578063fbfa77cf14610240575f5ffd5b80637da6ac0d1461019c5780638da5cb5b146101af578063c08cc02d146101d3575f5ffd5b8063338b89f1116100c3578063338b89f11461014e5780636d88b24d1461016e578063715018a61461018157806378ef113814610189575f5ffd5b8063013cf08b146100e95780630d61b51914610118578063263d391c1461012d575b5f5ffd5b6100fc6100f7366004610f02565b610253565b60405161010f9796959493929190610f47565b60405180910390f35b61012b610126366004610f02565b610340565b005b61014061013b366004610fb6565b610525565b60405190815260200161010f565b61016161015c366004611044565b610821565b60405161010f9190611064565b61012b61017c366004611044565b6109b1565b61012b610aba565b610161610197366004611044565b610acd565b61012b6101aa366004611044565b610bef565b5f546001600160a01b03165b6040516001600160a01b03909116815260200161010f565b600254610140565b6101ee6101e9366004610f02565b610c9d565b60405161010f91906110a6565b61021d610209366004611044565b60036020525f908152604090205460ff1681565b604051901515815260200161010f565b61012b61023b366004611044565b610e4a565b6001546101bb906001600160a01b031681565b60028181548110610262575f80fd5b5f91825260209091206006909102018054600182015460028301546003840180546001600160a01b039094169550919390929091906102a09061111c565b80601f01602080910402602001604051908101604052809291908181526020018280546102cc9061111c565b80156103175780601f106102ee57610100808354040283529160200191610317565b820191905f5260205f20905b8154815290600101906020018083116102fa57829003601f168201915b50505050600483015460059093015491929160ff8116915061010090046001600160a01b031687565b600254811061038c5760405162461bcd60e51b8152602060048201526013602482015272125b9d985b1a59081c1c9bdc1bdcd85b081251606a1b60448201526064015b60405180910390fd5b5f600282815481106103a0576103a0611154565b5f9182526020909120600690910201600581015490915060ff16156104075760405162461bcd60e51b815260206004820152601960248201527f50726f706f73616c20616c7265616479206578656375746564000000000000006044820152606401610383565b80546001600160a01b031633148061042857505f546001600160a01b031633145b6104745760405162461bcd60e51b815260206004820152601960248201527f4e6f7420617574686f72697a656420746f2065786563757465000000000000006044820152606401610383565b6001805482549183015460028401546040516348d11ff360e01b81526001600160a01b039485166004820152602481019290925260448201529116906348d11ff3906064015f604051808303815f87803b1580156104d0575f5ffd5b505af11580156104e2573d5f5f3e3d5ffd5b50505060058201805460ff1916600117905550604051339083907f9c85b616f29fca57a17eafe71cf9ff82ffef41766e2cf01ea7f8f7878dd3ec24905f90a35050565b335f9081526003602052604081205460ff1661057a5760405162461bcd60e51b8152602060048201526014602482015273139bdd08185d5d1a1bdc9a5e9959081859d95b9d60621b6044820152606401610383565b6001600160a01b0386166105c75760405162461bcd60e51b8152602060048201526014602482015273496e76616c69642075736572206164647265737360601b6044820152606401610383565b8385106106165760405162461bcd60e51b815260206004820152601d60248201527f496e76616c69642072616e67653a206c6f776572203e3d2075707065720000006044820152606401610383565b5f85116106655760405162461bcd60e51b815260206004820152601c60248201527f4c6f77657220626f756e64206d75737420626520706f736974697665000000006044820152606401610383565b816106a75760405162461bcd60e51b81526020600482015260126024820152711499585cdbdb9a5b99c81c995c5d5a5c995960721b6044820152606401610383565b600280549050905060026040518060e00160405280886001600160a01b0316815260200187815260200186815260200185858080601f0160208091040260200160405190810160405280939291908181526020018383808284375f92018290525093855250504260208085019190915260408085018490523360609586015286546001808201895597855293829020865160069095020180546001600160a01b0319166001600160a01b03909516949094178455908501519583019590955550928201516002840155810151909190600382019061078590826111c8565b506080820151600482015560a08201516005909101805460c0909301516001600160a81b0319909316911515610100600160a81b031916919091176101006001600160a01b03938416021790556040519087169082907f6366b5cc2836eb621cd5bcec3c14223a6ca47653e1e75bd70e8bf4df2662d231906108109089908990899089903390611283565b60405180910390a395945050505050565b60605f805b6002548110156108b457836001600160a01b03166002828154811061084d5761084d611154565b5f9182526020909120600690910201546001600160a01b031614801561089957506002818154811061088157610881611154565b5f91825260209091206005600690920201015460ff16155b156108ac57816108a8816112d2565b9250505b600101610826565b508067ffffffffffffffff8111156108ce576108ce611168565b6040519080825280602002602001820160405280156108f7578160200160208202803683370190505b5091505f805b6002548110156109a957846001600160a01b03166002828154811061092457610924611154565b5f9182526020909120600690910201546001600160a01b031614801561097057506002818154811061095857610958611154565b5f91825260209091206005600690920201015460ff16155b156109a1578084838151811061098857610988611154565b60209081029190910101528161099d816112d2565b9250505b6001016108fd565b505050919050565b6109b9610e87565b6001600160a01b038116610a075760405162461bcd60e51b8152602060048201526015602482015274496e76616c6964206167656e74206164647265737360581b6044820152606401610383565b6001600160a01b0381165f9081526003602052604090205460ff1615610a6f5760405162461bcd60e51b815260206004820152601860248201527f4167656e7420616c726561647920617574686f72697a656400000000000000006044820152606401610383565b6001600160a01b0381165f81815260036020526040808220805460ff19166001179055517f26e663c48c070d2d3c2bf6bcf88dc0a1e3ae99c58c36411130bed5924cf952669190a250565b610ac2610e87565b610acb5f610eb3565b565b60605f805b600254811015610b2d57836001600160a01b031660028281548110610af957610af9611154565b5f9182526020909120600690910201546001600160a01b031603610b255781610b21816112d2565b9250505b600101610ad2565b508067ffffffffffffffff811115610b4757610b47611168565b604051908082528060200260200182016040528015610b70578160200160208202803683370190505b5091505f805b6002548110156109a957846001600160a01b031660028281548110610b9d57610b9d611154565b5f9182526020909120600690910201546001600160a01b031603610be75780848381518110610bce57610bce611154565b602090810291909101015281610be3816112d2565b9250505b600101610b76565b610bf7610e87565b6001600160a01b0381165f9081526003602052604090205460ff16610c555760405162461bcd60e51b81526020600482015260146024820152731059d95b9d081b9bdd08185d5d1a1bdc9a5e995960621b6044820152606401610383565b6001600160a01b0381165f81815260036020526040808220805460ff19169055517f1d2ac3af5c639e57ee8f25bc162ea13a1ef8a663c92a4f3e33f126dd2d4feba49190a250565b6040805160e0810182525f808252602082018190529181018290526060808201526080810182905260a0810182905260c08101919091526002548210610d1b5760405162461bcd60e51b8152602060048201526013602482015272125b9d985b1a59081c1c9bdc1bdcd85b081251606a1b6044820152606401610383565b60028281548110610d2e57610d2e611154565b905f5260205f2090600602016040518060e00160405290815f82015f9054906101000a90046001600160a01b03166001600160a01b03166001600160a01b031681526020016001820154815260200160028201548152602001600382018054610d969061111c565b80601f0160208091040260200160405190810160405280929190818152602001828054610dc29061111c565b8015610e0d5780601f10610de457610100808354040283529160200191610e0d565b820191905f5260205f20905b815481529060010190602001808311610df057829003601f168201915b50505091835250506004820154602082015260059091015460ff81161515604083015261010090046001600160a01b031660609091015292915050565b610e52610e87565b6001600160a01b038116610e7b57604051631e4fbdf760e01b81525f6004820152602401610383565b610e8481610eb3565b50565b5f546001600160a01b03163314610acb5760405163118cdaa760e01b8152336004820152602401610383565b5f80546001600160a01b038381166001600160a01b0319831681178455604051919092169283917f8be0079c531659141344cd1fd0a4f28419497f9722a3daafe3b4186f6b6457e09190a35050565b5f60208284031215610f12575f5ffd5b5035919050565b5f81518084528060208401602086015e5f602082860101526020601f19601f83011685010191505092915050565b60018060a01b038816815286602082015285604082015260e060608201525f610f7360e0830187610f19565b60808301959095525091151560a08301526001600160a01b031660c090910152949350505050565b80356001600160a01b0381168114610fb1575f5ffd5b919050565b5f5f5f5f5f60808688031215610fca575f5ffd5b610fd386610f9b565b94506020860135935060408601359250606086013567ffffffffffffffff811115610ffc575f5ffd5b8601601f8101881361100c575f5ffd5b803567ffffffffffffffff811115611022575f5ffd5b886020828401011115611033575f5ffd5b959894975092955050506020019190565b5f60208284031215611054575f5ffd5b61105d82610f9b565b9392505050565b602080825282518282018190525f918401906040840190835b8181101561109b57835183526020938401939092019160010161107d565b509095945050505050565b6020815260018060a01b03825116602082015260208201516040820152604082015160608201525f606083015160e060808401526110e8610100840182610f19565b9050608084015160a084015260a0840151151560c084015260018060a01b0360c08501511660e08401528091505092915050565b600181811c9082168061113057607f821691505b60208210810361114e57634e487b7160e01b5f52602260045260245ffd5b50919050565b634e487b7160e01b5f52603260045260245ffd5b634e487b7160e01b5f52604160045260245ffd5b601f8211156111c357805f5260205f20601f840160051c810160208510156111a15750805b601f840160051c820191505b818110156111c0575f81556001016111ad565b50505b505050565b815167ffffffffffffffff8111156111e2576111e2611168565b6111f6816111f0845461111c565b8461117c565b6020601f821160018114611228575f83156112115750848201515b5f19600385901b1c1916600184901b1784556111c0565b5f84815260208120601f198516915b828110156112575787850151825560209485019460019092019101611237565b508482101561127457868401515f19600387901b60f8161c191681555b50505050600190811b01905550565b85815284602082015260806040820152826080820152828460a08301375f81840160a0908101919091526001600160a01b03929092166060820152601f909201601f1916909101019392505050565b5f600182016112ef57634e487b7160e01b5f52601160045260245ffd5b506001019056fea26469706673582212207337ec7b7f11c0929cf00ea39e473fe3586fb54c976580deb7e3b3431247fba864736f6c634300081c0033",
  "linkReferences": {},
  "deployedLinkReferences": {},
  "immutableReferences": {},
  "inputSourceName": "project/contracts/AgentExecutor.sol",
  "buildInfoId": "solc-0_8_28-583aa47e9cb146dfd5800148b6939c5a6b175b71"
}